:100000000C945D000C9485000C9485000C94850084
:100010000C9485000C9485000C9485000C9485004C
:100020000C9485000C9485000C9485000C9485003C
:100030000C9485000C9485000C9485000C9485002C
:100040000C948F030C9485000C94FF030C94D9033B
:100050000C9485000C9431040C9485000C9485005C
:100060000C9485000C94850000000008000201003B
:100070000003040700000000000000000000000072
:10008000250028002B0000000000240027002A0083
:10009000040404040404040402020202020203032E
:1000A0000303030301020408102040800102040836
:1000B0001020010204081020650411241FBECFEF98
:1000C000D8E0DEBFCDBF11E0A0E0B1E0E2E0FFE0AC
:1000D00002C005900D92AE31B107D9F721E0AEE133
:1000E000B1E001C01D92A43EB207E1F710E0CDE5FA
:1000F000D0E004C02197FE010E947407CC35D107DF
:10010000C9F70E94AF040C947F070C94000090E0A4
:10011000FC01EC55FF4F2491FC01E057FF4F849107
:10012000882399F090E0880F991FFC01EA57FF4F50
:10013000A591B491FC01E458FF4F859194918FB73C
:10014000F894EC91E22BEC938FBF089590E0FC01C2
:10015000E859FF4F2491FC01EC55FF4F3491FC010D
:10016000E057FF4FE491EE2309F43CC0222339F11C
:10017000233091F038F42130A9F0223001F584B514
:100180008F7D12C0273091F02830A1F02430B9F4CF
:10019000809180008F7D03C0809180008F77809355
:1001A00080000DC084B58F7784BD09C08091B000F8
:1001B0008F7703C08091B0008F7D8093B000F0E016
:1001C000EE0FFF1FE458FF4FA591B4919FB7F8942D
:1001D000611104C08C913095382302C0EC913E2B04
:1001E0003C939FBF08953FB7F89480912B01909165
:1001F0002C01A0912D01B0912E0126B5A89B05C020
:100200002F3F19F00196A11DB11D3FBFBA2FA92F95
:10021000982F8827820F911DA11DB11DBC01CD0112
:1002200042E0660F771F881F991F4A95D1F70895FE
:10023000CF92DF92EF92FF920F931F93CF93DF93B2
:100240006C017A018B01C0E0D0E0CE15DF0581F0B2
:10025000D8016D918D01D601ED91FC910190F08155
:10026000E02DC6010995892B11F02196EECF7E0174
:10027000C701DF91CF911F910F91FF90EF90DF9019
:10028000CF900895FC01538D448D252F30E0842FAD
:1002900090E0821B930B541710F0CF9608950197AE
:1002A0000895FC01918D828D981761F0828DDF0198
:1002B000A80FB11D5D968C91928D9F5F9F73928F59
:1002C00090E008958FEF9FEF0895FC01918D828D4E
:1002D000981731F0828DE80FF11D858D90E008951B
:1002E0008FEF9FEF0895FC01918D228D892F90E073
:1002F000805C9F4F821B91098F73992708958FE22D
:1003000091E00E94730121E0892B09F420E0822F03
:100310000895FC01848DDF01A80FB11DA35ABF4FC2
:100320002C91848D90E001968F739927848FA689F4
:10033000B7892C93A089B1898C91837080648C9348
:10034000938D848D981306C00288F389E02D8081F7
:100350008F7D80830895EF92FF920F931F93CF9329
:10036000DF93EC0181E0888F9B8D8C8D981305C005
:10037000E889F989808185FD26C0F62E0B8D10E075
:100380000F5F1F4F0F731127E02E8C8DE8120CC0EA
:100390000FB607FCFACFE889F989808185FFF5CF90
:1003A000CE010E948901F1CF8B8DFE01E80FF11D76
:1003B000E35AFF4FF0829FB7F8940B8FEA89FB89CD
:1003C000808180620AC09FB7F894EE89FF896083BC
:1003D000E889F98980818370806480839FBF81E090
:1003E00090E0DF91CF911F910F91FF90EF900895D2
:1003F000CF93DF93EC01888D8823C9F0EA89FB89CC
:10040000808185FD05C0A889B9898C9186FD0FC0C2
:100410000FB607FCF5CF808185FFF2CFA889B98997
:100420008C9185FFEDCFCE010E948901E7CFDF914E
:10043000CF91089580E090E0892B29F00E947F0100
:1004400081110C9400000895CF93DF93EC0160E0DC
:100450008E810E94A60061E08E810E94A60060E06D
:100460008E810E94A6008BE891E00197F1F7DF9161
:10047000CF910895CF92DF92EF92FF920F931F9347
:10048000CF93DF936C017C0187E0E80EF11CC0E0A4
:10049000D0E0062F10E0B8010C2E02C075956795CC
:1004A0000A94E2F76170F70181917F010E94A60032
:1004B0002196C430D10579F7C601DF91CF911F9104
:1004C0000F91FF90EF90DF90CF900C942402CF9289
:1004D000DF92EF92FF920F931F93CF93DF93EC0184
:1004E000F62E642F8C810E94A6008D818F3F19F01B
:1004F00060E00E94A6008F850F2D10E084FF25C0CC
:100500006E0187E0C80ED11CE12CF12CB8010E2C35
:1005100002C0759567950A94E2F76170F6018191C2
:100520006F010E94A600FFEFEF1AFF0A88E0E816AD
:10053000F10461F7CE01DF91CF911F910F91FF90F0
:10054000EF90DF90CF900C942402B80184E0759571
:1005500067958A95E1F7CE010E943A026F2DCE0190
:10056000DF91CF911F910F91FF90EF90DF90CF908F
:100570000C943A02CF93DF93823028F09091DB0104
:1005800098609093DB018093DF011092E00180E49A
:100590008093E10180E18093E20180E58093E301B3
:1005A0008091D0010E9487008091D1018F3F11F08E
:1005B0000E9487008091D2010E948700CCECD1E09C
:1005C0009E012C5C31408091DB0184FD03C084E0FE
:1005D00090E002C088E090E021962817390724F4C3
:1005E0008E810E948700ECCF8BE39DE00197F1F7AD
:1005F00060E08091D0010E94A60060E08091D2016D
:100600000E94A6008091D1018F3F19F060E00E9406
:10061000A6006091DB0164FD20C063E08CEC91E0FA
:100620000E943A02CBE4D6E4CE010197F1F763E0F1
:100630008CEC91E00E943A022197F1F763E08CEC98
:1006400091E00E943A0283E592E00197F1F762E0BF
:100650008CEC91E00E943A021EC0606240E08CEC9B
:1006600091E00E9467028BE496E40197F1F76091B4
:10067000DB01606240E08CEC91E00E94670283E560
:1006800092E00197F1F76091DB01606240E08CEC51
:1006900091E00E9467026091DB01606240E08CECB7
:1006A00091E00E94670284E08093DC0140E06CE00E
:1006B0008CEC91E00E94670240E061E08CEC91E0FC
:1006C0000E9467028BE39FE10197F1F782E080933C
:1006D000DD0140E066E08CEC91E0DF91CF910C947D
:1006E000670241E00E94670281E090E0089508956A
:1006F00080E090E00895009769F0FC0101900020EF
:10070000E9F73197AF01481B590BBC018CEC91E024
:100710000C94180180E090E008950E947A071F92DF
:100720000F920FB60F9211242F933F938F939F93A5
:10073000AF93BF938091270190912801A091290147
:10074000B0912A013091260123E0230F2D3720F4A8
:100750000196A11DB11D05C026E8230F0296A11D1B
:10076000B11D209326018093270190932801A09327
:100770002901B0932A0180912B0190912C01A09125
:100780002D01B0912E010196A11DB11D80932B0169
:1007900090932C01A0932D01B0932E01BF91AF91A6
:1007A0009F918F913F912F910F900FBE0F901F90AF
:1007B00018951F920F920FB60F9211242F933F930B
:1007C0004F935F936F937F938F939F93AF93BF9359
:1007D000EF93FF938FE291E00E948901FF91EF91E7
:1007E000BF91AF919F918F917F916F915F914F9149
:1007F0003F912F910F900FBE0F901F9018951F9251
:100800000F920FB60F9211242F938F939F93EF9314
:10081000FF93E0913F01F09140018081E09145011B
:10082000F091460182FD12C09081809148018F5F56
:100830008F7320914901821751F0E0914801F0E057
:10084000E15DFE4F958F8093480101C08081FF914B
:10085000EF919F918F912F910F900FBE0F901F904E
:1008600018951F920F920FB60F9211248F939F939A
:100870009091200180917900809320019F3778F436
:100880008F3768F080911E0190911F019093240191
:100890008093230110921F0110921E0106C0811146
:1008A00004C02D9A81E08093250180911E019091D2
:1008B0001F01019690931F0180931E019F918F91BC
:1008C0000F900FBE0F901F901895EFE2F1E013828A
:1008D000128288EE93E0A0E0B0E084839583A68343
:1008E000B78384E091E09183808385EC90E09587E5
:1008F000848784EC90E09787868780EC90E0918BEA
:10090000808B81EC90E0938B828B82EC90E0958BD6
:10091000848B86EC90E0978B868B118E128E138ED3
:10092000148EECECF1E01382128286E191E0918367
:1009300080838CE084838FEF85838BE0868385E0E2
:10094000878384E0808783E0818782E082871386C3
:10095000148615861686178681E00C94BA02CF930A
:10096000DF93CDB7DEB7A1970FB6F894DEBF0FBE09
:10097000CDBF789484B5826084BD84B5816084BD28
:1009800085B5826085BD85B5816085BD80916E002D
:10099000816080936E00109281008091810082605E
:1009A000809381008091810081608093810080919B
:1009B00080008160809380008091B100846080938A
:1009C000B1008091B00081608093B00080917A0086
:1009D000846080937A0080917A00826080937A00AC
:1009E00080917A00816080937A0080917A0080689B
:1009F00080937A001092C100E0913F01F091400194
:100A000082E08083E0913B01F0913C011082E09113
:100A10003D01F0913E018FEC808310924701E091FF
:100A20004301F091440186E08083E0914101F0911F
:100A30004201808180618083E0914101F091420117
:100A4000808188608083E0914101F0914201808142
:100A500080688083E0914101F091420180818F7D27
:100A6000808382E00E94BA028DE00E948700F894A1
:100A700010927A0010927B0080917C0080648093B9
:100A80007C0080917C00806280937C0080917A0061
:100A9000856080937A0080917A00806280937A00EA
:100AA00080917A00886080937A0080917A008068D3
:100AB00080937A0080917A00806480937A007894A1
:100AC0000BE31FE19AE0492E512C612C712C80918F
:100AD0002501882319F02D981092250120912301DA
:100AE0003091240140E050E06EE376E980E090E050
:100AF0000E945507CA01B9010E94A7062AE037EDF6
:100B00004DE751E40E94FD050E946F066B017C01D8
:100B1000709322016093210140E061E08CEC91E050
:100B20000E946702C8010197F1F70D2C000CEE0836
:100B3000FF08F7FE21C041E06DE28CEC91E00E94DD
:100B4000670222273327A9012C193D094E095F09A5
:100B500019A2CE0181967C01CA01B901A3019201BB
:100B60000E943307605DF70162937F012115310513
:100B70004105510589F715C0A701960119A2CE01BB
:100B800081967C01CA01B901A30192010E94330739
:100B9000605DF70162937F01211531054105510523
:100BA00089F7C7010E947B030E94F3004B015C019F
:100BB00084E6C82ED12CE12CF12C0E94F300DC013C
:100BC000CB0188199909AA09BB09883E9340A10560
:100BD000B10598F3F1E0CF1AD108E108F10828EE49
:100BE000820E23E0921EA11CB11CC114D104E104A9
:100BF000F10419F70E941A026ACF0E9411060C94A0
:100C0000F9060E94F20658F00E94EB0640F029F423
:100C10005F3F29F00C94E20651110C942D070C94BF
:100C2000E8060E940A0768F39923B1F3552391F36C
:100C3000951B550BBB27AA2762177307840738F04B
:100C40009F5F5F4F220F331F441FAA1FA9F335D0A8
:100C50000E2E3AF0E0E832D091505040E695001C5C
:100C6000CAF72BD0FE2F29D0660F771F881FBB1F16
:100C7000261737074807AB07B0E809F0BB0B802DF4
:100C8000BF01FF2793585F4F3AF09E3F510578F020
:100C90000C94E2060C942D075F3FE4F3983ED4F3E6
:100CA000869577956795B795F7959F5FC9F7880FF4
:100CB000911D9695879597F90895E1E0660F771F46
:100CC000881FBB1F621773078407BA0720F0621BD7
:100CD000730B840BBA0BEE1F88F7E09508950E9402
:100CE00076066894B1110C942D0708950E9412079E
:100CF00088F09F5798F0B92F9927B751B0F0E1F0DD
:100D0000660F771F881F991F1AF0BA95C9F714C08C
:100D1000B13091F00E942C07B1E008950C942C079B
:100D2000672F782F8827B85F39F0B93FCCF38695C5
:100D300077956795B395D9F73EF490958095709522
:100D400061957F4F8F4F9F4F0895E89409C097FB9F
:100D50003EF490958095709561957F4F8F4F9F4F92
:100D60009923A9F0F92F96E9BB279395F6958795D6
:100D700077956795B795F111F8CFFAF4BB0F11F499
:100D800060FF1BC06F5F7F4F8F4F9F4F16C0882340
:100D900011F096E911C0772321F09EE8872F762F76
:100DA00005C0662371F096E8862F70E060E02AF0B7
:100DB0009A95660F771F881FDAF7880F96958795A3
:100DC00097F9089597F99F6780E870E060E00895CB
:100DD0009FEF80EC089500240A9416161706180653
:100DE0000906089500240A9412161306140605062F
:100DF0000895092E0394000C11F4882352F0BB0FC0
:100E000040F4BF2B11F460FF04C06F5F7F4F8F4F22
:100E10009F4F089557FD9058440F551F59F05F3F5D
:100E200071F04795880F97FB991F61F09F3F79F00C
:100E300087950895121613061406551FF2CF46958E
:100E4000F1DF08C0161617061806991FF1CF869510
:100E50007105610508940895E894BB2766277727F4
:100E6000CB0197F90895A1E21A2EAA1BBB1BFD0125
:100E70000DC0AA1FBB1FEE1FFF1FA217B307E40779
:100E8000F50720F0A21BB30BE40BF50B661F771FD1
:100E9000881F991F1A9469F76095709580959095B1
:100EA0009B01AC01BD01CF010895052E97FB1EF4F7
:100EB00000940E946C0757FD07D00E94330707FC7F
:100EC00003D04EF40C946C075095409530952195C5
:100ED0003F4F4F4F5F4F0895909580957095619566
:100EE0007F4F8F4F9F4F0895EE0FFF1F0590F49196
:100EF000E02D099481E090E0F8940C947F07F89439
:020F0000FFCF21
:100F020000000000AB0118014201F8017301510118
:0E0F12006501000000007103180178037703E9
:00000001FF
