:100000000C945D000C9485000C9485000C94850084
:100010000C9485000C9485000C9485000C9485004C
:100020000C9485000C9485000C9485000C9485003C
:100030000C9485000C9485000C9485000C9485002C
:100040000C947D030C9485000C94ED030C94C70371
:100050000C9485000C941F040C9485000C9485006E
:100060000C9485000C94850000000008000201003B
:100070000003040700000000000000000000000072
:10008000250028002B0000000000240027002A0083
:10009000040404040404040402020202020203032E
:1000A0000303030301020408102040800102040836
:1000B0001020010204081020530411241FBECFEFAA
:1000C000D8E0DEBFCDBF11E0A0E0B1E0EAEEFEE097
:1000D00002C005900D92AC32B107D9F721E0ACE235
:1000E000B1E001C01D92A03FB207E1F710E0CDE5FD
:1000F000D0E004C02197FE010E946807CC35D107EB
:10010000C9F70E949D040C9473070C94000090E0C2
:10011000FC01EC55FF4F2491FC01E057FF4F849107
:10012000882399F090E0880F991FFC01EA57FF4F50
:10013000A591B491FC01E458FF4F859194918FB73C
:10014000F894EC91E22BEC938FBF089590E0FC01C2
:10015000E859FF4F2491FC01EC55FF4F3491FC010D
:10016000E057FF4FE491EE2309F43CC0222339F11C
:10017000233091F038F42130A9F0223001F584B514
:100180008F7D12C0273091F02830A1F02430B9F4CF
:10019000809180008F7D03C0809180008F77809355
:1001A00080000DC084B58F7784BD09C08091B000F8
:1001B0008F7703C08091B0008F7D8093B000F0E016
:1001C000EE0FFF1FE458FF4FA591B4919FB7F8942D
:1001D000611104C08C913095382302C0EC913E2B04
:1001E0003C939FBF08953FB7F89480913701909159
:1001F0003801A0913901B0913A0126B5A89B05C0FC
:100200002F3F19F00196A11DB11D3FBFBA2FA92F95
:10021000982F8827820F911DA11DB11DBC01CD0112
:1002200042E0660F771F881F991F4A95D1F70895FE
:10023000CF92DF92EF92FF920F931F93CF93DF93B2
:100240006C017A018B01C0E0D0E0CE15DF0581F0B2
:10025000D8016D918D01D601ED91FC910190F08155
:10026000E02DC6010995892B11F02196EECF7E0174
:10027000C701DF91CF911F910F91FF90EF90DF9019
:10028000CF900895FC01538D448D252F30E0842FAD
:1002900090E0821B930B541710F0CF9608950197AE
:1002A0000895FC01918D828D981761F0828DDF0198
:1002B000A80FB11D5D968C91928D9F5F9F73928F59
:1002C00090E008958FEF9FEF0895FC01918D828D4E
:1002D000981731F0828DE80FF11D858D90E008951B
:1002E0008FEF9FEF0895FC01918D228D892F90E073
:1002F000805C9F4F821B91098F73992708958BE330
:1003000091E00E94730121E0892B09F420E0822F03
:100310000895FC01848DDF01A80FB11DA35ABF4FC2
:100320002C91848D90E001968F739927848FA689F4
:10033000B7892C93A089B1898C91837080648C9348
:10034000938D848D981306C00288F389E02D8081F7
:100350008F7D80830895EF92FF920F931F93CF9329
:10036000DF93EC0181E0888F9B8D8C8D981305C005
:10037000E889F989808185FD26C0F62E0B8D10E075
:100380000F5F1F4F0F731127E02E8C8DE8120CC0EA
:100390000FB607FCFACFE889F989808185FFF5CF90
:1003A000CE010E948901F1CF8B8DFE01E80FF11D76
:1003B000E35AFF4FF0829FB7F8940B8FEA89FB89CD
:1003C000808180620AC09FB7F894EE89FF896083BC
:1003D000E889F98980818370806480839FBF81E090
:1003E00090E0DF91CF911F910F91FF90EF900895D2
:1003F000CF93DF93EC01888D8823C9F0EA89FB89CC
:10040000808185FD05C0A889B9898C9186FD0FC0C2
:100410000FB607FCF5CF808185FFF2CFA889B98997
:100420008C9185FFEDCFCE010E948901E7CFDF914E
:10043000CF91089580E090E0892B29F00E947F0100
:1004400081110C9400000895CF93DF93EC0160E0DC
:100450008E810E94A60061E08E810E94A60060E06D
:100460008E810E94A6008BE891E00197F1F7DF9161
:10047000CF910895CF92DF92EF92FF920F931F9347
:10048000CF93DF936C017C0187E0E80EF11CC0E0A4
:10049000D0E0062F10E0B8010C2E02C075956795CC
:1004A0000A94E2F76170F70181917F010E94A60032
:1004B0002196C430D10579F7C601DF91CF911F9104
:1004C0000F91FF90EF90DF90CF900C942402CF9289
:1004D000DF92EF92FF920F931F93CF93DF93EC0184
:1004E000F62E642F8C810E94A6008D818F3F19F01B
:1004F00060E00E94A6008F850F2D10E084FF25C0CC
:100500006E0187E0C80ED11CE12CF12CB8010E2C35
:1005100002C0759567950A94E2F76170F6018191C2
:100520006F010E94A600FFEFEF1AFF0A88E0E816AD
:10053000F10461F7CE01DF91CF911F910F91FF90F0
:10054000EF90DF90CF900C942402B80184E0759571
:1005500067958A95E1F7CE010E943A026F2DCE0190
:10056000DF91CF911F910F91FF90EF90DF90CF908F
:100570000C943A02CF93DF93823028F09091E701F8
:1005800098609093E7018093EB011092EC0180E476
:100590008093ED0180E18093EE0180E58093EF018F
:1005A0008091DC010E9487008091DD018F3F11F076
:1005B0000E9487008091DE010E948700C8EDD1E093
:1005C0009E01285D31408091E70184FD03C084E0F5
:1005D00090E002C088E090E021962817390724F4C3
:1005E0008E810E948700ECCF8BE39DE00197F1F7AD
:1005F00060E08091DC010E94A60060E08091DE0155
:100600000E94A6008091DD018F3F19F060E00E94FA
:10061000A6006091E70164FD20C063E088ED91E0F1
:100620000E943A02CBE4D6E4CE010197F1F763E0F1
:1006300088ED91E00E943A022197F1F763E088ED9E
:1006400091E00E943A0283E592E00197F1F762E0BF
:1006500088ED91E00E943A021EC0606240E088EDA1
:1006600091E00E9467028BE496E40197F1F76091B4
:10067000E701606240E088ED91E00E94670283E557
:1006800092E00197F1F76091E701606240E088ED48
:1006900091E00E9467026091E701606240E088EDAE
:1006A00091E00E94670284E08093E80140E06CE002
:1006B00088ED91E00E94670240E061E088ED91E002
:1006C0000E9467028BE39FE10197F1F782E080933C
:1006D000E90140E066E088ED91E0DF91CF910C9474
:1006E000670241E00E94670281E090E0089508956A
:1006F00080E090E008950E946E071F920F920FB65F
:100700000F9211242F933F938F939F93AF93BF9397
:100710008091330190913401A0913501B09136015F
:100720003091320123E0230F2D3720F40196A11DD3
:10073000B11D05C026E8230F0296A11DB11D20930F
:1007400032018093330190933401A0933501B0932B
:1007500036018091370190913801A0913901B09113
:100760003A010196A11DB11D809337019093380184
:10077000A0933901B0933A01BF91AF919F918F91AE
:100780003F912F910F900FBE0F901F9018951F92C1
:100790000F920FB60F9211242F933F934F935F93B5
:1007A0006F937F938F939F93AF93BF93EF93FF9339
:1007B0008BE391E00E948901FF91EF91BF91AF918E
:1007C0009F918F917F916F915F914F913F912F9169
:1007D0000F900FBE0F901F9018951F920F920FB69B
:1007E0000F9211242F938F939F93EF93FF93E09198
:1007F0004B01F0914C018081E0915101F091520147
:1008000082FD12C09081809154018F5F8F7320917F
:100810005501821751F0E0915401F0E0E55CFE4F84
:10082000958F8093540101C08081FF91EF919F913A
:100830008F912F910F900FBE0F901F9018951F92C0
:100840000F920FB60F9211248F939F9390912E01C8
:100850008091790080932E019F3778F48F3768F06C
:1008600080912C0190912D019093300180932F0164
:1008700010922D0110922C0106C0811104C02D9AF6
:1008800081E08093310180912C0190912D0101969E
:1008900090932D0180932C019F918F910F900FBE0B
:1008A0000F901F901895EBE3F1E01382128288EE0F
:1008B00093E0A0E0B0E084839583A683B78380E1D2
:1008C00091E09183808385EC90E09587848784EC28
:1008D00090E09787868780EC90E0918B808B81EC0D
:1008E00090E0938B828B82EC90E0958B848B86ECEE
:1008F00090E0978B868B118E128E138E148EE8EDFE
:10090000F1E01382128282E291E0918380838CE095
:1009100084838FEF85838BE0868385E0878384E003
:10092000808783E0818782E082871386148615861C
:100930001686178681E00C94BA02CF93DF93CDB769
:10094000DEB72C970FB6F894DEBF0FBECDBF7894FC
:1009500084B5826084BD84B5816084BD85B58260C4
:1009600085BD85B5816085BD80916E008160809375
:100970006E001092810080918100826080938100DE
:1009800080918100816080938100809180008160EE
:10099000809380008091B10084608093B100809149
:1009A000B00081608093B00080917A008460809371
:1009B0007A0080917A00826080937A0080917A0038
:1009C000816080937A0080917A00806880937A00B9
:1009D0001092C100E0914B01F0914C0182E08083C4
:1009E000E0914701F09148011082E0914901F091B6
:1009F0004A018FEC808310925301E0914F01F091F6
:100A0000500186E08083E0914D01F0914E0180819C
:100A100080618083E0914D01F0914E01808188607A
:100A20008083E0914D01F0914E0180818068808348
:100A3000E0914D01F0914E0180818F7D808382E0B5
:100A40000E94BA028DE00E948700F89410927A000A
:100A500010927B0080917C00806480937C00809168
:100A60007C00806280937C0080917A008560809316
:100A70007A0080917A00806280937A0080917A0077
:100A8000886080937A0080917A00806880937A00F1
:100A900080917A00806480937A0078949EE3C92ED6
:100AA00096E9D92EE12CF12C8AE291E0082F2BE374
:100AB000222E2FE1322E80913101882319F02D98BA
:100AC0001092310120912F013091300140E050E02F
:100AD000C701B6010E942707CA01B9010E949B06FF
:100AE0002AE037ED4DE751E40E94F1050E946306CC
:100AF0008CE0E0E0F1E0DE01119601900D928A9524
:100B0000E1F7DE01119680E090E0E8EEF3E040E0EE
:100B100050E02D913D91261B370B37FF03C03195D7
:100B2000219531092E173F0714F4F901CA014F5FCF
:100B30005F4F4630510569F78530910571F084307B
:100B4000910569F08330910579F0102F823091057D
:100B500069F08130910561F003C015E401C011E432
:100B6000892B39F415E605C014E603C017E601C069
:100B700012E640E061E088ED91E00E946702C10169
:100B80000197F1F741E0612F88ED91E00E94670243
:100B90000E94F3004B015C0184E6482E512C612C2D
:100BA000712C0E94F300DC01CB0188199909AA0974
:100BB000BB09883E9340A105B10598F321E0421A94
:100BC00051086108710888EE880E83E0981EA11C08
:100BD000B11C411451046104710419F70E941A02F6
:100BE0006ACF0E9405060C94ED060E94E60658F0B6
:100BF0000E94DF0640F029F45F3F29F00C94D606EE
:100C000051110C9421070C94DC060E94FE0668F337
:100C10009923B1F3552391F3951B550BBB27AA27B5
:100C200062177307840738F09F5F5F4F220F331FEF
:100C3000441FAA1FA9F335D00E2E3AF0E0E832D0B7
:100C400091505040E695001CCAF72BD0FE2F29D0BA
:100C5000660F771F881FBB1F261737074807AB078C
:100C6000B0E809F0BB0B802DBF01FF2793585F4F01
:100C70003AF09E3F510578F00C94D6060C9421076B
:100C80005F3FE4F3983ED4F3869577956795B795E3
:100C9000F7959F5FC9F7880F911D9695879597F9EE
:100CA0000895E1E0660F771F881FBB1F6217730767
:100CB0008407BA0720F0621B730B840BBA0BEE1F7C
:100CC00088F7E09508950E946A066894B1110C9423
:100CD000210708950E94060788F09F5798F0B92FC2
:100CE0009927B751B0F0E1F0660F771F881F991F61
:100CF0001AF0BA95C9F714C0B13091F00E942007DC
:100D0000B1E008950C942007672F782F8827B85FEB
:100D100039F0B93FCCF3869577956795B395D9F7B8
:100D20003EF490958095709561957F4F8F4F9F4FC2
:100D30000895E89409C097FB3EF4909580957095CE
:100D400061957F4F8F4F9F4F9923A9F0F92F96E917
:100D5000BB279395F695879577956795B795F1118C
:100D6000F8CFFAF4BB0F11F460FF1BC06F5F7F4F29
:100D70008F4F9F4F16C0882311F096E911C077233B
:100D800021F09EE8872F762F05C0662371F096E844
:100D9000862F70E060E02AF09A95660F771F881F13
:100DA000DAF7880F9695879597F9089597F99F67D1
:100DB00080E870E060E008959FEF80EC08950024E3
:100DC0000A941616170618060906089500240A94B0
:100DD00012161306140605060895092E0394000C36
:100DE00011F4882352F0BB0F40F4BF2B11F460FFC5
:100DF00004C06F5F7F4F8F4F9F4F089557FD9058EE
:100E0000440F551F59F05F3F71F04795880F97FBCE
:100E1000991F61F09F3F79F0879508951216130688
:100E20001406551FF2CF4695F1DF08C016161706B7
:100E30001806991FF1CF86957105610508940895EC
:100E4000E894BB2766277727CB0197F90895052EED
:100E500097FB1EF400940E943E0757FD07D00E94A6
:100E6000460707FC03D04EF40C943E07509540957E
:100E7000309521953F4F4F4F5F4F08959095809546
:100E8000709561957F4F8F4F9F4F0895A1E21A2E65
:100E9000AA1BBB1BFD010DC0AA1FBB1FEE1FFF1F1E
:100EA000A217B307E407F50720F0A21BB30BE40B6E
:100EB000F50B661F771F881F991F1A9469F76095B5
:100EC0007095809590959B01AC01BD01CF0108956F
:100ED000EE0FFF1F0590F491E02D099481E090E062
:0A0EE000F8940C947307F894FFCF08
:100EEA004A01F700C40093006E005200000000009F
:100EFA00AB0118014201F8017301510165010000BB
:0C0F0A0000007103180178037703000059
:00000001FF
